{
  "contractName": "AccessControlLayer",
  "abi": [
    {
      "constant": true,
      "inputs": [],
      "name": "dataSource",
      "outputs": [
        {
          "name": "",
          "type": "address"
        }
      ],
      "payable": false,
      "stateMutability": "view",
      "type": "function"
    },
    {
      "constant": true,
      "inputs": [
        {
          "name": "",
          "type": "uint256"
        }
      ],
      "name": "tokenToPayoutMap",
      "outputs": [
        {
          "name": "",
          "type": "uint256"
        }
      ],
      "payable": false,
      "stateMutability": "view",
      "type": "function"
    },
    {
      "constant": true,
      "inputs": [
        {
          "name": "",
          "type": "uint256"
        }
      ],
      "name": "ownerOfTokenMap",
      "outputs": [
        {
          "name": "",
          "type": "address"
        }
      ],
      "payable": false,
      "stateMutability": "view",
      "type": "function"
    },
    {
      "constant": true,
      "inputs": [],
      "name": "pointsLimit",
      "outputs": [
        {
          "name": "",
          "type": "uint256"
        }
      ],
      "payable": false,
      "stateMutability": "view",
      "type": "function"
    },
    {
      "constant": true,
      "inputs": [],
      "name": "lastCheckedToken",
      "outputs": [
        {
          "name": "",
          "type": "uint32"
        }
      ],
      "payable": false,
      "stateMutability": "view",
      "type": "function"
    },
    {
      "constant": true,
      "inputs": [
        {
          "name": "",
          "type": "uint256"
        }
      ],
      "name": "tokenToPointsMap",
      "outputs": [
        {
          "name": "",
          "type": "uint16"
        }
      ],
      "payable": false,
      "stateMutability": "view",
      "type": "function"
    },
    {
      "constant": true,
      "inputs": [],
      "name": "lastCalculatedToken",
      "outputs": [
        {
          "name": "",
          "type": "uint32"
        }
      ],
      "payable": false,
      "stateMutability": "view",
      "type": "function"
    },
    {
      "constant": true,
      "inputs": [],
      "name": "paused",
      "outputs": [
        {
          "name": "",
          "type": "bool"
        }
      ],
      "payable": false,
      "stateMutability": "view",
      "type": "function"
    },
    {
      "constant": true,
      "inputs": [],
      "name": "lastAssigned",
      "outputs": [
        {
          "name": "",
          "type": "uint32"
        }
      ],
      "payable": false,
      "stateMutability": "view",
      "type": "function"
    },
    {
      "constant": true,
      "inputs": [],
      "name": "prizePool",
      "outputs": [
        {
          "name": "",
          "type": "uint256"
        }
      ],
      "payable": false,
      "stateMutability": "view",
      "type": "function"
    },
    {
      "constant": true,
      "inputs": [],
      "name": "payoutRange",
      "outputs": [
        {
          "name": "",
          "type": "uint32"
        }
      ],
      "payable": false,
      "stateMutability": "view",
      "type": "function"
    },
    {
      "constant": true,
      "inputs": [],
      "name": "pValidationState",
      "outputs": [
        {
          "name": "",
          "type": "uint8"
        }
      ],
      "payable": false,
      "stateMutability": "view",
      "type": "function"
    },
    {
      "constant": true,
      "inputs": [],
      "name": "auxWorstPoints",
      "outputs": [
        {
          "name": "",
          "type": "uint256"
        }
      ],
      "payable": false,
      "stateMutability": "view",
      "type": "function"
    },
    {
      "constant": true,
      "inputs": [],
      "name": "saleOpen",
      "outputs": [
        {
          "name": "",
          "type": "bool"
        }
      ],
      "payable": false,
      "stateMutability": "view",
      "type": "function"
    },
    {
      "constant": true,
      "inputs": [],
      "name": "winnerCounter",
      "outputs": [
        {
          "name": "",
          "type": "uint32"
        }
      ],
      "payable": false,
      "stateMutability": "view",
      "type": "function"
    },
    {
      "constant": true,
      "inputs": [
        {
          "name": "",
          "type": "address"
        },
        {
          "name": "",
          "type": "uint256"
        }
      ],
      "name": "tokensOfOwnerMap",
      "outputs": [
        {
          "name": "",
          "type": "uint256"
        }
      ],
      "payable": false,
      "stateMutability": "view",
      "type": "function"
    },
    {
      "constant": true,
      "inputs": [],
      "name": "finalized",
      "outputs": [
        {
          "name": "",
          "type": "bool"
        }
      ],
      "payable": false,
      "stateMutability": "view",
      "type": "function"
    },
    {
      "constant": true,
      "inputs": [],
      "name": "adminPool",
      "outputs": [
        {
          "name": "",
          "type": "uint256"
        }
      ],
      "payable": false,
      "stateMutability": "view",
      "type": "function"
    },
    {
      "constant": true,
      "inputs": [],
      "name": "lastPrizeGiven",
      "outputs": [
        {
          "name": "",
          "type": "uint32"
        }
      ],
      "payable": false,
      "stateMutability": "view",
      "type": "function"
    },
    {
      "constant": true,
      "inputs": [],
      "name": "dataSourceAddress",
      "outputs": [
        {
          "name": "",
          "type": "address"
        }
      ],
      "payable": false,
      "stateMutability": "view",
      "type": "function"
    },
    {
      "constant": true,
      "inputs": [],
      "name": "deploymentTime",
      "outputs": [
        {
          "name": "",
          "type": "uint256"
        }
      ],
      "payable": false,
      "stateMutability": "view",
      "type": "function"
    },
    {
      "constant": true,
      "inputs": [
        {
          "name": "",
          "type": "uint256"
        }
      ],
      "name": "tokensApprovedMap",
      "outputs": [
        {
          "name": "",
          "type": "address"
        }
      ],
      "payable": false,
      "stateMutability": "view",
      "type": "function"
    },
    {
      "constant": true,
      "inputs": [],
      "name": "adminAddress",
      "outputs": [
        {
          "name": "",
          "type": "address"
        }
      ],
      "payable": false,
      "stateMutability": "view",
      "type": "function"
    },
    {
      "constant": true,
      "inputs": [],
      "name": "finalizedTime",
      "outputs": [
        {
          "name": "",
          "type": "uint256"
        }
      ],
      "payable": false,
      "stateMutability": "view",
      "type": "function"
    },
    {
      "constant": true,
      "inputs": [],
      "name": "gameFinishedTime",
      "outputs": [
        {
          "name": "",
          "type": "uint256"
        }
      ],
      "payable": false,
      "stateMutability": "view",
      "type": "function"
    },
    {
      "anonymous": false,
      "inputs": [
        {
          "indexed": false,
          "name": "creatorAddress",
          "type": "address"
        },
        {
          "indexed": false,
          "name": "tokenId",
          "type": "uint256"
        },
        {
          "components": [
            {
              "name": "groups1",
              "type": "uint192"
            },
            {
              "name": "groups2",
              "type": "uint192"
            },
            {
              "name": "brackets",
              "type": "uint160"
            },
            {
              "name": "timeStamp",
              "type": "uint64"
            },
            {
              "name": "extra",
              "type": "uint32"
            }
          ],
          "indexed": false,
          "name": "token",
          "type": "tuple"
        }
      ],
      "name": "LogTokenBuilt",
      "type": "event"
    },
    {
      "anonymous": false,
      "inputs": [
        {
          "indexed": false,
          "name": "result",
          "type": "uint8[]"
        }
      ],
      "name": "LogDataSourceCallbackList",
      "type": "event"
    },
    {
      "anonymous": false,
      "inputs": [
        {
          "indexed": false,
          "name": "result",
          "type": "uint8"
        }
      ],
      "name": "LogDataSourceCallbackInt",
      "type": "event"
    },
    {
      "anonymous": false,
      "inputs": [
        {
          "indexed": false,
          "name": "result",
          "type": "uint8"
        },
        {
          "indexed": false,
          "name": "result2",
          "type": "uint8"
        }
      ],
      "name": "LogDataSourceCallbackTwoInt",
      "type": "event"
    },
    {
      "constant": false,
      "inputs": [
        {
          "name": "_newAdmin",
          "type": "address"
        }
      ],
      "name": "setAdmin",
      "outputs": [],
      "payable": false,
      "stateMutability": "nonpayable",
      "type": "function"
    },
    {
      "constant": false,
      "inputs": [
        {
          "name": "state",
          "type": "bool"
        }
      ],
      "name": "setPauseState",
      "outputs": [],
      "payable": false,
      "stateMutability": "nonpayable",
      "type": "function"
    },
    {
      "constant": false,
      "inputs": [
        {
          "name": "state",
          "type": "bool"
        }
      ],
      "name": "setFinalized",
      "outputs": [],
      "payable": false,
      "stateMutability": "nonpayable",
      "type": "function"
    }
  ],
  "bytecode": "0x6080604052600060035560006004556000600560006101000a81548163ffffffff021916908363ffffffff16021790555060006006556000600760006101000a81548163ffffffff021916908363ffffffff1602179055506000600760046101000a81548163ffffffff021916908363ffffffff1602179055506000600760086101000a81548163ffffffff021916908363ffffffff160217905550631dcd65006008556000600960006101000a81548163ffffffff021916908363ffffffff1602179055506000600960046101000a81548163ffffffff021916908363ffffffff1602179055506000600a556000600b556000600c556000604560006101000a81548160ff0219169083600681111561011557fe5b02179055506000604b60006101000a81548160ff0219169083151502179055506000604b60016101000a81548160ff0219169083151502179055506001604b60026101000a81548160ff02191690831515021790555034801561017757600080fd5b50610c89806101876000396000f30060806040526004361061016a576000357c0100000000000000000000000000000000000000000000000000000000900463ffffffff1680631b076edc1461016f57806320b27291146101c65780632cdc078d146101f557806337440e9e1461023657806337a31079146102a35780633fd68ca7146102ce57806345b95aa7146103055780634f2af8691461034e5780635c975abb146103855780636a22b09a146103b4578063704b6c02146103eb578063719ce73e1461042e5780637ef1ab2c14610459578063810a217f1461049057806384682fbb146104c957806399288dbb146104f4578063a1e0c2c914610523578063a3816e901461055a578063b3f05b97146105bb578063b86a1fb2146105ea578063cdb88ad114610615578063d49edbd814610644578063d5a3b7341461067b578063ecda10f5146106d2578063ef8fd004146106fd578063fc6f94681461076a578063fe67a189146107c1578063fefaa626146107ec575b600080fd5b34801561017b57600080fd5b50610184610817565b604051808273ffffffffffffffffffffffffffffffffffffffff1673ffffffffffffffffffffffffffffffffffffffff16815260200191505060405180910390f35b3480156101d257600080fd5b506101f360048036038101908080351515906020019092919050505061083c565b005b34801561020157600080fd5b50610220600480360381019080803590602001909291905050506108f3565b6040518082815260200191505060405180910390f35b34801561024257600080fd5b506102616004803603810190808035906020019092919050505061090b565b604051808273ffffffffffffffffffffffffffffffffffffffff1673ffffffffffffffffffffffffffffffffffffffff16815260200191505060405180910390f35b3480156102af57600080fd5b506102b861093e565b6040518082815260200191505060405180910390f35b3480156102da57600080fd5b506102e3610944565b604051808263ffffffff1663ffffffff16815260200191505060405180910390f35b34801561031157600080fd5b506103306004803603810190808035906020019092919050505061095a565b604051808261ffff1661ffff16815260200191505060405180910390f35b34801561035a57600080fd5b5061036361097b565b604051808263ffffffff1663ffffffff16815260200191505060405180910390f35b34801561039157600080fd5b5061039a610991565b604051808215151515815260200191505060405180910390f35b3480156103c057600080fd5b506103c96109a4565b604051808263ffffffff1663ffffffff16815260200191505060405180910390f35b3480156103f757600080fd5b5061042c600480360381019080803573ffffffffffffffffffffffffffffffffffffffff1690602001909291905050506109ba565b005b34801561043a57600080fd5b50610443610a96565b6040518082815260200191505060405180910390f35b34801561046557600080fd5b5061046e610a9c565b604051808263ffffffff1663ffffffff16815260200191505060405180910390f35b34801561049c57600080fd5b506104a5610ab2565b604051808260068111156104b557fe5b60ff16815260200191505060405180910390f35b3480156104d557600080fd5b506104de610ac5565b6040518082815260200191505060405180910390f35b34801561050057600080fd5b50610509610acb565b604051808215151515815260200191505060405180910390f35b34801561052f57600080fd5b50610538610ade565b604051808263ffffffff1663ffffffff16815260200191505060405180910390f35b34801561056657600080fd5b506105a5600480360381019080803573ffffffffffffffffffffffffffffffffffffffff16906020019092919080359060200190929190505050610af4565b6040518082815260200191505060405180910390f35b3480156105c757600080fd5b506105d0610b24565b604051808215151515815260200191505060405180910390f35b3480156105f657600080fd5b506105ff610b37565b6040518082815260200191505060405180910390f35b34801561062157600080fd5b50610642600480360381019080803515159060200190929190505050610b3d565b005b34801561065057600080fd5b50610659610bb6565b604051808263ffffffff1663ffffffff16815260200191505060405180910390f35b34801561068757600080fd5b50610690610bcc565b604051808273ffffffffffffffffffffffffffffffffffffffff1673ffffffffffffffffffffffffffffffffffffffff16815260200191505060405180910390f35b3480156106de57600080fd5b506106e7610bf2565b6040518082815260200191505060405180910390f35b34801561070957600080fd5b5061072860048036038101908080359060200190929190505050610bf8565b604051808273ffffffffffffffffffffffffffffffffffffffff1673ffffffffffffffffffffffffffffffffffffffff16815260200191505060405180910390f35b34801561077657600080fd5b5061077f610c2b565b604051808273ffffffffffffffffffffffffffffffffffffffff1673ffffffffffffffffffffffffffffffffffffffff16815260200191505060405180910390f35b3480156107cd57600080fd5b506107d6610c51565b6040518082815260200191505060405180910390f35b3480156107f857600080fd5b50610801610c57565b6040518082815260200191505060405180910390f35b6000809054906101000a900473ffffffffffffffffffffffffffffffffffffffff1681565b600260009054906101000a900473ffffffffffffffffffffffffffffffffffffffff1673ffffffffffffffffffffffffffffffffffffffff163373ffffffffffffffffffffffffffffffffffffffff1614151561089857600080fd5b80604b60006101000a81548160ff02191690831515021790555080604b60016101000a81548160ff02191690831515021790555060011515604b60019054906101000a900460ff16151514156108f05742600c819055505b50565b60496020528060005260406000206000915090505481565b60476020528060005260406000206000915054906101000a900473ffffffffffffffffffffffffffffffffffffffff1681565b60065481565b600760009054906101000a900463ffffffff1681565b604a6020528060005260406000206000915054906101000a900461ffff1681565b600560009054906101000a900463ffffffff1681565b604b60009054906101000a900460ff1681565b600760089054906101000a900463ffffffff1681565b600260009054906101000a900473ffffffffffffffffffffffffffffffffffffffff1673ffffffffffffffffffffffffffffffffffffffff163373ffffffffffffffffffffffffffffffffffffffff16141515610a1657600080fd5b600073ffffffffffffffffffffffffffffffffffffffff168173ffffffffffffffffffffffffffffffffffffffff1614151515610a5257600080fd5b80600260006101000a81548173ffffffffffffffffffffffffffffffffffffffff021916908373ffffffffffffffffffffffffffffffffffffffff16021790555050565b600a5481565b600960009054906101000a900463ffffffff1681565b604560009054906101000a900460ff1681565b60085481565b604b60029054906101000a900460ff1681565b600760049054906101000a900463ffffffff1681565b604660205281600052604060002081815481101515610b0f57fe5b90600052602060002001600091509150505481565b604b60019054906101000a900460ff1681565b600b5481565b600260009054906101000a900473ffffffffffffffffffffffffffffffffffffffff1673ffffffffffffffffffffffffffffffffffffffff163373ffffffffffffffffffffffffffffffffffffffff16141515610b9957600080fd5b80604b60006101000a81548160ff02191690831515021790555050565b600960049054906101000a900463ffffffff1681565b600160009054906101000a900473ffffffffffffffffffffffffffffffffffffffff1681565b60035481565b60486020528060005260406000206000915054906101000a900473ffffffffffffffffffffffffffffffffffffffff1681565b600260009054906101000a900473ffffffffffffffffffffffffffffffffffffffff1681565b600c5481565b600454815600a165627a7a723058207b509b3147fa818669e614dc34f972479b63640af044323eaed0acd9342bdc3c0029",
  "source": "pragma solidity ^0.4.24;\r\n\r\n\r\nimport \"./DataLayer.sol\";\r\n\r\n/**\r\n* @title AccessControlLayer\r\n* @author CryptoCup Team (https://cryptocup.io/about)\r\n* @dev Containes basic admin modifiers to restrict access to some functions. Allows\r\n* for pauseing, and setting emergency stops.\r\n*/\r\ncontract AccessControlLayer is DataLayer{\r\n\r\n    bool public paused = false;\r\n    bool public finalized = false;\r\n    bool public saleOpen = true;\r\n\r\n   /**\r\n   * @dev Main modifier to limit access to delicate functions.\r\n   */\r\n    modifier onlyAdmin() {\r\n        require(msg.sender == adminAddress);\r\n        _;\r\n    }\r\n\r\n    /**\r\n    * @dev Modifier that checks that the contract is not paused\r\n    */\r\n    modifier isNotPaused() {\r\n        require(!paused);\r\n        _;\r\n    }\r\n\r\n    /**\r\n    * @dev Modifier that checks that the contract is paused\r\n    */\r\n    modifier isPaused() {\r\n        require(paused);\r\n        _;\r\n    }\r\n\r\n    /**\r\n    * @dev Modifier that checks that the contract has finished successfully\r\n    */\r\n    modifier hasFinished() {\r\n        require((gameFinishedTime != 0) && now >= (gameFinishedTime + (15 days)));\r\n        _;\r\n    }\r\n\r\n    /**\r\n    * @dev Modifier that checks that the contract has finalized\r\n    */\r\n    modifier hasFinalized() {\r\n        require(finalized);\r\n        _;\r\n    }\r\n\r\n    /**\r\n    * @dev Checks if pValidationState is in the provided stats\r\n    * @param state State required to run\r\n    */\r\n    modifier checkState(pointsValidationState state){\r\n        require(pValidationState == state);\r\n        _;\r\n    }\r\n\r\n    /**\r\n    * @dev Transfer contract's ownership\r\n    * @param _newAdmin Address to be set\r\n    */\r\n    function setAdmin(address _newAdmin) external onlyAdmin {\r\n\r\n        require(_newAdmin != address(0));\r\n        adminAddress = _newAdmin;\r\n    }\r\n\r\n    /**\r\n    * @dev Sets the contract pause state\r\n    * @param state True to pause\r\n    */\r\n    function setPauseState(bool state) external onlyAdmin {\r\n        paused = state;\r\n    }\r\n\r\n    /**\r\n    * @dev Sets the contract to finalized\r\n    * @param state True to finalize\r\n    */\r\n    function setFinalized(bool state) external onlyAdmin {\r\n        paused = state;\r\n        finalized = state;\r\n        if(finalized == true)\r\n            finalizedTime = now;\r\n    }\r\n}",
  "sourcePath": "C:\\Users\\Athira\\Desktop\\ERC721\\contracts\\AccessControlLayer.sol",
  "compiler": {
    "name": "solc",
    "version": "0.4.24+commit.e67f0147.Emscripten.clang"
  },
  "schemaVersion": "2.0.0",
  "updatedAt": "2018-09-11T15:55:25.521Z"
}