{
  "contractName": "DataLayer",
  "abi": [
    {
      "constant": true,
      "inputs": [],
      "name": "dataSource",
      "outputs": [
        {
          "name": "",
          "type": "address"
        }
      ],
      "payable": false,
      "stateMutability": "view",
      "type": "function"
    },
    {
      "constant": true,
      "inputs": [
        {
          "name": "",
          "type": "uint256"
        }
      ],
      "name": "tokenToPayoutMap",
      "outputs": [
        {
          "name": "",
          "type": "uint256"
        }
      ],
      "payable": false,
      "stateMutability": "view",
      "type": "function"
    },
    {
      "constant": true,
      "inputs": [
        {
          "name": "",
          "type": "uint256"
        }
      ],
      "name": "ownerOfTokenMap",
      "outputs": [
        {
          "name": "",
          "type": "address"
        }
      ],
      "payable": false,
      "stateMutability": "view",
      "type": "function"
    },
    {
      "constant": true,
      "inputs": [],
      "name": "pointsLimit",
      "outputs": [
        {
          "name": "",
          "type": "uint256"
        }
      ],
      "payable": false,
      "stateMutability": "view",
      "type": "function"
    },
    {
      "constant": true,
      "inputs": [],
      "name": "lastCheckedToken",
      "outputs": [
        {
          "name": "",
          "type": "uint32"
        }
      ],
      "payable": false,
      "stateMutability": "view",
      "type": "function"
    },
    {
      "constant": true,
      "inputs": [
        {
          "name": "",
          "type": "uint256"
        }
      ],
      "name": "tokenToPointsMap",
      "outputs": [
        {
          "name": "",
          "type": "uint16"
        }
      ],
      "payable": false,
      "stateMutability": "view",
      "type": "function"
    },
    {
      "constant": true,
      "inputs": [],
      "name": "lastCalculatedToken",
      "outputs": [
        {
          "name": "",
          "type": "uint32"
        }
      ],
      "payable": false,
      "stateMutability": "view",
      "type": "function"
    },
    {
      "constant": true,
      "inputs": [],
      "name": "lastAssigned",
      "outputs": [
        {
          "name": "",
          "type": "uint32"
        }
      ],
      "payable": false,
      "stateMutability": "view",
      "type": "function"
    },
    {
      "constant": true,
      "inputs": [],
      "name": "prizePool",
      "outputs": [
        {
          "name": "",
          "type": "uint256"
        }
      ],
      "payable": false,
      "stateMutability": "view",
      "type": "function"
    },
    {
      "constant": true,
      "inputs": [],
      "name": "payoutRange",
      "outputs": [
        {
          "name": "",
          "type": "uint32"
        }
      ],
      "payable": false,
      "stateMutability": "view",
      "type": "function"
    },
    {
      "constant": true,
      "inputs": [],
      "name": "pValidationState",
      "outputs": [
        {
          "name": "",
          "type": "uint8"
        }
      ],
      "payable": false,
      "stateMutability": "view",
      "type": "function"
    },
    {
      "constant": true,
      "inputs": [],
      "name": "auxWorstPoints",
      "outputs": [
        {
          "name": "",
          "type": "uint256"
        }
      ],
      "payable": false,
      "stateMutability": "view",
      "type": "function"
    },
    {
      "constant": true,
      "inputs": [],
      "name": "winnerCounter",
      "outputs": [
        {
          "name": "",
          "type": "uint32"
        }
      ],
      "payable": false,
      "stateMutability": "view",
      "type": "function"
    },
    {
      "constant": true,
      "inputs": [
        {
          "name": "",
          "type": "address"
        },
        {
          "name": "",
          "type": "uint256"
        }
      ],
      "name": "tokensOfOwnerMap",
      "outputs": [
        {
          "name": "",
          "type": "uint256"
        }
      ],
      "payable": false,
      "stateMutability": "view",
      "type": "function"
    },
    {
      "constant": true,
      "inputs": [],
      "name": "adminPool",
      "outputs": [
        {
          "name": "",
          "type": "uint256"
        }
      ],
      "payable": false,
      "stateMutability": "view",
      "type": "function"
    },
    {
      "constant": true,
      "inputs": [],
      "name": "lastPrizeGiven",
      "outputs": [
        {
          "name": "",
          "type": "uint32"
        }
      ],
      "payable": false,
      "stateMutability": "view",
      "type": "function"
    },
    {
      "constant": true,
      "inputs": [],
      "name": "dataSourceAddress",
      "outputs": [
        {
          "name": "",
          "type": "address"
        }
      ],
      "payable": false,
      "stateMutability": "view",
      "type": "function"
    },
    {
      "constant": true,
      "inputs": [],
      "name": "deploymentTime",
      "outputs": [
        {
          "name": "",
          "type": "uint256"
        }
      ],
      "payable": false,
      "stateMutability": "view",
      "type": "function"
    },
    {
      "constant": true,
      "inputs": [
        {
          "name": "",
          "type": "uint256"
        }
      ],
      "name": "tokensApprovedMap",
      "outputs": [
        {
          "name": "",
          "type": "address"
        }
      ],
      "payable": false,
      "stateMutability": "view",
      "type": "function"
    },
    {
      "constant": true,
      "inputs": [],
      "name": "adminAddress",
      "outputs": [
        {
          "name": "",
          "type": "address"
        }
      ],
      "payable": false,
      "stateMutability": "view",
      "type": "function"
    },
    {
      "constant": true,
      "inputs": [],
      "name": "finalizedTime",
      "outputs": [
        {
          "name": "",
          "type": "uint256"
        }
      ],
      "payable": false,
      "stateMutability": "view",
      "type": "function"
    },
    {
      "constant": true,
      "inputs": [],
      "name": "gameFinishedTime",
      "outputs": [
        {
          "name": "",
          "type": "uint256"
        }
      ],
      "payable": false,
      "stateMutability": "view",
      "type": "function"
    },
    {
      "anonymous": false,
      "inputs": [
        {
          "indexed": false,
          "name": "creatorAddress",
          "type": "address"
        },
        {
          "indexed": false,
          "name": "tokenId",
          "type": "uint256"
        },
        {
          "components": [
            {
              "name": "groups1",
              "type": "uint192"
            },
            {
              "name": "groups2",
              "type": "uint192"
            },
            {
              "name": "brackets",
              "type": "uint160"
            },
            {
              "name": "timeStamp",
              "type": "uint64"
            },
            {
              "name": "extra",
              "type": "uint32"
            }
          ],
          "indexed": false,
          "name": "token",
          "type": "tuple"
        }
      ],
      "name": "LogTokenBuilt",
      "type": "event"
    },
    {
      "anonymous": false,
      "inputs": [
        {
          "indexed": false,
          "name": "result",
          "type": "uint8[]"
        }
      ],
      "name": "LogDataSourceCallbackList",
      "type": "event"
    },
    {
      "anonymous": false,
      "inputs": [
        {
          "indexed": false,
          "name": "result",
          "type": "uint8"
        }
      ],
      "name": "LogDataSourceCallbackInt",
      "type": "event"
    },
    {
      "anonymous": false,
      "inputs": [
        {
          "indexed": false,
          "name": "result",
          "type": "uint8"
        },
        {
          "indexed": false,
          "name": "result2",
          "type": "uint8"
        }
      ],
      "name": "LogDataSourceCallbackTwoInt",
      "type": "event"
    }
  ],
  "bytecode": "0x6080604052600060035560006004556000600560006101000a81548163ffffffff021916908363ffffffff16021790555060006006556000600760006101000a81548163ffffffff021916908363ffffffff1602179055506000600760046101000a81548163ffffffff021916908363ffffffff1602179055506000600760086101000a81548163ffffffff021916908363ffffffff160217905550631dcd65006008556000600960006101000a81548163ffffffff021916908363ffffffff1602179055506000600960046101000a81548163ffffffff021916908363ffffffff1602179055506000600a556000600b556000600c556000604560006101000a81548160ff0219169083600681111561011557fe5b021790555034801561012657600080fd5b506108d4806101366000396000f300608060405260043610610128576000357c0100000000000000000000000000000000000000000000000000000000900463ffffffff1680631b076edc1461012d5780632cdc078d1461018457806337440e9e146101c557806337a31079146102325780633fd68ca71461025d57806345b95aa7146102945780634f2af869146102dd5780636a22b09a14610314578063719ce73e1461034b5780637ef1ab2c14610376578063810a217f146103ad57806384682fbb146103e6578063a1e0c2c914610411578063a3816e9014610448578063b86a1fb2146104a9578063d49edbd8146104d4578063d5a3b7341461050b578063ecda10f514610562578063ef8fd0041461058d578063fc6f9468146105fa578063fe67a18914610651578063fefaa6261461067c575b600080fd5b34801561013957600080fd5b506101426106a7565b604051808273ffffffffffffffffffffffffffffffffffffffff1673ffffffffffffffffffffffffffffffffffffffff16815260200191505060405180910390f35b34801561019057600080fd5b506101af600480360381019080803590602001909291905050506106cc565b6040518082815260200191505060405180910390f35b3480156101d157600080fd5b506101f0600480360381019080803590602001909291905050506106e4565b604051808273ffffffffffffffffffffffffffffffffffffffff1673ffffffffffffffffffffffffffffffffffffffff16815260200191505060405180910390f35b34801561023e57600080fd5b50610247610717565b6040518082815260200191505060405180910390f35b34801561026957600080fd5b5061027261071d565b604051808263ffffffff1663ffffffff16815260200191505060405180910390f35b3480156102a057600080fd5b506102bf60048036038101908080359060200190929190505050610733565b604051808261ffff1661ffff16815260200191505060405180910390f35b3480156102e957600080fd5b506102f2610754565b604051808263ffffffff1663ffffffff16815260200191505060405180910390f35b34801561032057600080fd5b5061032961076a565b604051808263ffffffff1663ffffffff16815260200191505060405180910390f35b34801561035757600080fd5b50610360610780565b6040518082815260200191505060405180910390f35b34801561038257600080fd5b5061038b610786565b604051808263ffffffff1663ffffffff16815260200191505060405180910390f35b3480156103b957600080fd5b506103c261079c565b604051808260068111156103d257fe5b60ff16815260200191505060405180910390f35b3480156103f257600080fd5b506103fb6107af565b6040518082815260200191505060405180910390f35b34801561041d57600080fd5b506104266107b5565b604051808263ffffffff1663ffffffff16815260200191505060405180910390f35b34801561045457600080fd5b50610493600480360381019080803573ffffffffffffffffffffffffffffffffffffffff169060200190929190803590602001909291905050506107cb565b6040518082815260200191505060405180910390f35b3480156104b557600080fd5b506104be6107fb565b6040518082815260200191505060405180910390f35b3480156104e057600080fd5b506104e9610801565b604051808263ffffffff1663ffffffff16815260200191505060405180910390f35b34801561051757600080fd5b50610520610817565b604051808273ffffffffffffffffffffffffffffffffffffffff1673ffffffffffffffffffffffffffffffffffffffff16815260200191505060405180910390f35b34801561056e57600080fd5b5061057761083d565b6040518082815260200191505060405180910390f35b34801561059957600080fd5b506105b860048036038101908080359060200190929190505050610843565b604051808273ffffffffffffffffffffffffffffffffffffffff1673ffffffffffffffffffffffffffffffffffffffff16815260200191505060405180910390f35b34801561060657600080fd5b5061060f610876565b604051808273ffffffffffffffffffffffffffffffffffffffff1673ffffffffffffffffffffffffffffffffffffffff16815260200191505060405180910390f35b34801561065d57600080fd5b5061066661089c565b6040518082815260200191505060405180910390f35b34801561068857600080fd5b506106916108a2565b6040518082815260200191505060405180910390f35b6000809054906101000a900473ffffffffffffffffffffffffffffffffffffffff1681565b60496020528060005260406000206000915090505481565b60476020528060005260406000206000915054906101000a900473ffffffffffffffffffffffffffffffffffffffff1681565b60065481565b600760009054906101000a900463ffffffff1681565b604a6020528060005260406000206000915054906101000a900461ffff1681565b600560009054906101000a900463ffffffff1681565b600760089054906101000a900463ffffffff1681565b600a5481565b600960009054906101000a900463ffffffff1681565b604560009054906101000a900460ff1681565b60085481565b600760049054906101000a900463ffffffff1681565b6046602052816000526040600020818154811015156107e657fe5b90600052602060002001600091509150505481565b600b5481565b600960049054906101000a900463ffffffff1681565b600160009054906101000a900473ffffffffffffffffffffffffffffffffffffffff1681565b60035481565b60486020528060005260406000206000915054906101000a900473ffffffffffffffffffffffffffffffffffffffff1681565b600260009054906101000a900473ffffffffffffffffffffffffffffffffffffffff1681565b600c5481565b600454815600a165627a7a7230582026da926b2ad3ddad76b03a2be65e82d1e6506a5734f9a7819da76f6cf7830aca0029",
  "source": "pragma solidity ^0.4.24;\r\n\r\nimport \"./DataSourceInterface.sol\";\r\n\r\n/**\r\n* @title DataLayer.\r\n* @author CryptoCup Team (https://cryptocup.io/about)\r\n*/\r\ncontract DataLayer{\r\n\r\n    \r\n    uint256 constant WCCTOKEN_CREATION_LIMIT = 5000000;\r\n    uint256 constant STARTING_PRICE = 45 finney;\r\n    \r\n    /// Epoch times based on when the prices change.\r\n    uint256 constant FIRST_PHASE  = 1527476400;\r\n    uint256 constant SECOND_PHASE = 1528081200;\r\n    uint256 constant THIRD_PHASE  = 1528686000;\r\n    uint256 constant WORLD_CUP_START = 1528945200;\r\n\r\n    DataSourceInterface public dataSource;\r\n    address public dataSourceAddress;\r\n\r\n    address public adminAddress;\r\n    uint256 public deploymentTime = 0;\r\n    uint256 public gameFinishedTime = 0; //set this to now when oraclize was called.\r\n    uint32 public lastCalculatedToken = 0;\r\n    uint256 public pointsLimit = 0;\r\n    uint32 public lastCheckedToken = 0;\r\n    uint32 public winnerCounter = 0;\r\n    uint32 public lastAssigned = 0;\r\n    uint256 public auxWorstPoints = 500000000;\r\n    uint32 public payoutRange = 0;\r\n    uint32 public lastPrizeGiven = 0;\r\n    uint256 public prizePool = 0;\r\n    uint256 public adminPool = 0;\r\n    uint256 public finalizedTime = 0;\r\n\r\n    enum teamState { None, ROS, QUARTERS, SEMIS, FINAL }\r\n    enum pointsValidationState { Unstarted, LimitSet, LimitCalculated, OrderChecked, TopWinnersAssigned, WinnersAssigned, Finished }\r\n    \r\n    /**\r\n    * groups1     scores of the first half of matches (8 bits each)\r\n    * groups2     scores of the second half of matches (8 bits each)\r\n    * brackets    winner's team ids of each round (5 bits each)\r\n    * timeStamp   creation timestamp\r\n    * extra       number of yellow and red cards (16 bits each)\r\n    */\r\n    struct Token {\r\n        uint192 groups1;\r\n        uint192 groups2;\r\n        uint160 brackets;\r\n        uint64 timeStamp;\r\n        uint32  extra;\r\n    }\r\n\r\n    struct GroupResult{\r\n        uint8 teamOneGoals;\r\n        uint8 teamTwoGoals;\r\n    }\r\n\r\n    struct BracketPhase{\r\n        uint8[16] roundOfSixteenTeamsIds;\r\n        mapping (uint8 => bool) teamExists;\r\n        mapping (uint8 => teamState) middlePhaseTeamsIds;\r\n        uint8[4] finalsTeamsIds;\r\n    }\r\n\r\n    struct Extras {\r\n        uint16 yellowCards;\r\n        uint16 redCards;\r\n    }\r\n\r\n    \r\n    // List of all tokens\r\n    Token[] tokens;\r\n\r\n    GroupResult[48] groupsResults;\r\n    BracketPhase bracketsResults;\r\n    Extras extraResults;\r\n\r\n    // List of all tokens that won \r\n    uint256[] sortedWinners;\r\n\r\n    // List of the worst tokens (they also win)\r\n    uint256[] worstTokens;\r\n    pointsValidationState public pValidationState = pointsValidationState.Unstarted;\r\n\r\n    mapping (address => uint256[]) public tokensOfOwnerMap;\r\n    mapping (uint256 => address) public ownerOfTokenMap;\r\n    mapping (uint256 => address) public tokensApprovedMap;\r\n    mapping (uint256 => uint256) public tokenToPayoutMap;\r\n    mapping (uint256 => uint16) public tokenToPointsMap;    \r\n\r\n\r\n    event LogTokenBuilt(address creatorAddress, uint256 tokenId, Token token);\r\n    event LogDataSourceCallbackList(uint8[] result);\r\n    event LogDataSourceCallbackInt(uint8 result);\r\n    event LogDataSourceCallbackTwoInt(uint8 result, uint8 result2);\r\n\r\n}",
  "sourcePath": "C:\\Users\\Athira\\Desktop\\ERC721\\contracts\\DataLayer.sol",
  "compiler": {
    "name": "solc",
    "version": "0.4.24+commit.e67f0147.Emscripten.clang"
  },
  "schemaVersion": "2.0.0",
  "updatedAt": "2018-09-11T15:55:25.525Z"
}