{
  "contractName": "Migrations",
  "abi": [
    {
      "constant": true,
      "inputs": [],
      "name": "last_completed_migration",
      "outputs": [
        {
          "name": "",
          "type": "uint256"
        }
      ],
      "payable": false,
      "stateMutability": "view",
      "type": "function"
    },
    {
      "constant": true,
      "inputs": [
        {
          "name": "",
          "type": "bytes32"
        }
      ],
      "name": "votesReceived",
      "outputs": [
        {
          "name": "",
          "type": "uint8"
        }
      ],
      "payable": false,
      "stateMutability": "view",
      "type": "function"
    },
    {
      "constant": true,
      "inputs": [],
      "name": "owner",
      "outputs": [
        {
          "name": "",
          "type": "address"
        }
      ],
      "payable": false,
      "stateMutability": "view",
      "type": "function"
    },
    {
      "constant": true,
      "inputs": [
        {
          "name": "",
          "type": "uint256"
        }
      ],
      "name": "candidateList",
      "outputs": [
        {
          "name": "",
          "type": "bytes32"
        }
      ],
      "payable": false,
      "stateMutability": "view",
      "type": "function"
    },
    {
      "inputs": [],
      "payable": false,
      "stateMutability": "nonpayable",
      "type": "constructor"
    },
    {
      "constant": false,
      "inputs": [
        {
          "name": "completed",
          "type": "uint256"
        }
      ],
      "name": "setCompleted",
      "outputs": [],
      "payable": false,
      "stateMutability": "nonpayable",
      "type": "function"
    },
    {
      "constant": false,
      "inputs": [
        {
          "name": "new_address",
          "type": "address"
        }
      ],
      "name": "upgrade",
      "outputs": [],
      "payable": false,
      "stateMutability": "nonpayable",
      "type": "function"
    },
    {
      "constant": false,
      "inputs": [
        {
          "name": "candidateNames",
          "type": "bytes32[]"
        }
      ],
      "name": "Voting",
      "outputs": [],
      "payable": false,
      "stateMutability": "nonpayable",
      "type": "function"
    },
    {
      "constant": true,
      "inputs": [
        {
          "name": "candidate",
          "type": "bytes32"
        }
      ],
      "name": "totalVotesFor",
      "outputs": [
        {
          "name": "",
          "type": "uint8"
        }
      ],
      "payable": false,
      "stateMutability": "view",
      "type": "function"
    },
    {
      "constant": false,
      "inputs": [
        {
          "name": "candidate",
          "type": "bytes32"
        }
      ],
      "name": "voteForCandidate",
      "outputs": [],
      "payable": false,
      "stateMutability": "nonpayable",
      "type": "function"
    },
    {
      "constant": true,
      "inputs": [
        {
          "name": "candidate",
          "type": "bytes32"
        }
      ],
      "name": "validCandidate",
      "outputs": [
        {
          "name": "",
          "type": "bool"
        }
      ],
      "payable": false,
      "stateMutability": "view",
      "type": "function"
    }
  ],
  "bytecode": "0x608060405234801561001057600080fd5b50336000806101000a81548173ffffffffffffffffffffffffffffffffffffffff021916908373ffffffffffffffffffffffffffffffffffffffff1602179055506106d1806100606000396000f3006080604052600436106100a4576000357c0100000000000000000000000000000000000000000000000000000000900463ffffffff1680630900f010146100a95780632f265cf7146100ec578063392e667814610137578063445df0ac146101805780637021939f146101ab5780637e1cd79c146101f65780638da5cb5b1461025c578063b13c744b146102b3578063cc9ab267146102fc578063fdacd5761461032d575b600080fd5b3480156100b557600080fd5b506100ea600480360381019080803573ffffffffffffffffffffffffffffffffffffffff16906020019092919050505061035a565b005b3480156100f857600080fd5b5061011b6004803603810190808035600019169060200190929190505050610442565b604051808260ff1660ff16815260200191505060405180910390f35b34801561014357600080fd5b506101666004803603810190808035600019169060200190929190505050610488565b604051808215151515815260200191505060405180910390f35b34801561018c57600080fd5b506101956104e7565b6040518082815260200191505060405180910390f35b3480156101b757600080fd5b506101da60048036038101908080356000191690602001909291905050506104ed565b604051808260ff1660ff16815260200191505060405180910390f35b34801561020257600080fd5b5061025a6004803603810190808035906020019082018035906020019080806020026020016040519081016040528093929190818152602001838360200280828437820191505050505050919291929050505061050d565b005b34801561026857600080fd5b50610271610527565b604051808273ffffffffffffffffffffffffffffffffffffffff1673ffffffffffffffffffffffffffffffffffffffff16815260200191505060405180910390f35b3480156102bf57600080fd5b506102de6004803603810190808035906020019092919050505061054c565b60405180826000191660001916815260200191505060405180910390f35b34801561030857600080fd5b5061032b600480360381019080803560001916906020019092919050505061056f565b005b34801561033957600080fd5b50610358600480360381019080803590602001909291905050506105cd565b005b60008060009054906101000a900473ffffffffffffffffffffffffffffffffffffffff1673ffffffffffffffffffffffffffffffffffffffff163373ffffffffffffffffffffffffffffffffffffffff16141561043e578190508073ffffffffffffffffffffffffffffffffffffffff1663fdacd5766001546040518263ffffffff167c010000000000000000000000000000000000000000000000000000000002815260040180828152602001915050600060405180830381600087803b15801561042557600080fd5b505af1158015610439573d6000803e3d6000fd5b505050505b5050565b600061044d82610488565b151561045857600080fd5b60026000836000191660001916815260200190815260200160002060009054906101000a900460ff169050919050565b600080600090505b6003805490508110156104dc5782600019166003828154811015156104b157fe5b90600052602060002001546000191614156104cf57600191506104e1565b8080600101915050610490565b600091505b50919050565b60015481565b60026020528060005260406000206000915054906101000a900460ff1681565b806003908051906020019061052392919061062d565b5050565b6000809054906101000a900473ffffffffffffffffffffffffffffffffffffffff1681565b60038181548110151561055b57fe5b906000526020600020016000915090505481565b61057881610488565b151561058357600080fd5b600160026000836000191660001916815260200190815260200160002060008282829054906101000a900460ff160192506101000a81548160ff021916908360ff16021790555050565b6000809054906101000a900473ffffffffffffffffffffffffffffffffffffffff1673ffffffffffffffffffffffffffffffffffffffff163373ffffffffffffffffffffffffffffffffffffffff16141561062a57806001819055505b50565b82805482825590600052602060002090810192821561066f579160200282015b8281111561066e57825182906000191690559160200191906001019061064d565b5b50905061067c9190610680565b5090565b6106a291905b8082111561069e576000816000905550600101610686565b5090565b905600a165627a7a723058207333eea18da80080aaab0a446c70ee3e9bac0db826ec876e59470d3ef6bc1b430029",
  "source": "pragma solidity ^0.4.23;\n\ncontract Migrations {\n  address public owner;\n  uint public last_completed_migration;\n\n  constructor() public {\n    owner = msg.sender;\n  }\n\n  modifier restricted() {\n    if (msg.sender == owner) _;\n  }\n\n  function setCompleted(uint completed) public restricted {\n    last_completed_migration = completed;\n  }\n\n  function upgrade(address new_address) public restricted {\n    Migrations upgraded = Migrations(new_address);\n    upgraded.setCompleted(last_completed_migration);\n  }\n  mapping (bytes32 => uint8) public votesReceived;\n  \n  /* Solidity doesn't let you pass in an array of strings in the constructor (yet).\n  We will use an array of bytes32 instead to store the list of candidates\n  */\n  \n    bytes32[] public candidateList;\n\n  /* This is the constructor which will be called once when you\n  deploy the contract to the blockchain. When we deploy the contract,\n  we will pass an array of candidates who will be contesting in the election\n  */\n    function Voting(bytes32[] candidateNames) public {\n        candidateList = candidateNames;\n    }\n\n  // This function returns the total votes a candidate has received so far\n    function totalVotesFor(bytes32 candidate) view public returns (uint8) {\n        require(validCandidate(candidate));\n        return votesReceived[candidate];\n    }\n\n  // This function increments the vote count for the specified candidate. This\n  // is equivalent to casting a vote\n    function voteForCandidate(bytes32 candidate) public {\n        require(validCandidate(candidate));\n        votesReceived[candidate] += 1;\n    }\n\n    function validCandidate(bytes32 candidate) view public returns (bool) {\n        for(uint i = 0; i < candidateList.length; i++) {\n            if (candidateList[i] == candidate) {\n                return true;\n            }\n        }\n        return false;\n    }\n}\n",
  "sourcePath": "C:\\Users\\Athira\\Desktop\\ERC721\\contracts\\Migrations.sol",
  "compiler": {
    "name": "solc",
    "version": "0.4.24+commit.e67f0147.Emscripten.clang"
  },
  "schemaVersion": "2.0.0",
  "updatedAt": "2018-09-11T21:32:06.933Z"
}