{
  "contractName": "MyERC721",
  "abi": [
    {
      "constant": true,
      "inputs": [
        {
          "name": "_interfaceId",
          "type": "bytes4"
        }
      ],
      "name": "supportsInterface",
      "outputs": [
        {
          "name": "",
          "type": "bool"
        }
      ],
      "payable": false,
      "stateMutability": "view",
      "type": "function"
    },
    {
      "constant": true,
      "inputs": [],
      "name": "name",
      "outputs": [
        {
          "name": "",
          "type": "string"
        }
      ],
      "payable": false,
      "stateMutability": "view",
      "type": "function"
    },
    {
      "constant": true,
      "inputs": [
        {
          "name": "_tokenId",
          "type": "uint256"
        }
      ],
      "name": "getApproved",
      "outputs": [
        {
          "name": "",
          "type": "address"
        }
      ],
      "payable": false,
      "stateMutability": "view",
      "type": "function"
    },
    {
      "constant": false,
      "inputs": [
        {
          "name": "_to",
          "type": "address"
        },
        {
          "name": "_tokenId",
          "type": "uint256"
        }
      ],
      "name": "approve",
      "outputs": [],
      "payable": false,
      "stateMutability": "nonpayable",
      "type": "function"
    },
    {
      "constant": true,
      "inputs": [],
      "name": "totalSupply",
      "outputs": [
        {
          "name": "",
          "type": "uint256"
        }
      ],
      "payable": false,
      "stateMutability": "view",
      "type": "function"
    },
    {
      "constant": true,
      "inputs": [],
      "name": "InterfaceId_ERC165",
      "outputs": [
        {
          "name": "",
          "type": "bytes4"
        }
      ],
      "payable": false,
      "stateMutability": "view",
      "type": "function"
    },
    {
      "constant": false,
      "inputs": [
        {
          "name": "_from",
          "type": "address"
        },
        {
          "name": "_to",
          "type": "address"
        },
        {
          "name": "_tokenId",
          "type": "uint256"
        }
      ],
      "name": "transferFrom",
      "outputs": [],
      "payable": false,
      "stateMutability": "nonpayable",
      "type": "function"
    },
    {
      "constant": true,
      "inputs": [
        {
          "name": "_owner",
          "type": "address"
        },
        {
          "name": "_index",
          "type": "uint256"
        }
      ],
      "name": "tokenOfOwnerByIndex",
      "outputs": [
        {
          "name": "",
          "type": "uint256"
        }
      ],
      "payable": false,
      "stateMutability": "view",
      "type": "function"
    },
    {
      "constant": false,
      "inputs": [
        {
          "name": "_from",
          "type": "address"
        },
        {
          "name": "_to",
          "type": "address"
        },
        {
          "name": "_tokenId",
          "type": "uint256"
        }
      ],
      "name": "safeTransferFrom",
      "outputs": [],
      "payable": false,
      "stateMutability": "nonpayable",
      "type": "function"
    },
    {
      "constant": true,
      "inputs": [
        {
          "name": "_tokenId",
          "type": "uint256"
        }
      ],
      "name": "exists",
      "outputs": [
        {
          "name": "",
          "type": "bool"
        }
      ],
      "payable": false,
      "stateMutability": "view",
      "type": "function"
    },
    {
      "constant": true,
      "inputs": [
        {
          "name": "_index",
          "type": "uint256"
        }
      ],
      "name": "tokenByIndex",
      "outputs": [
        {
          "name": "",
          "type": "uint256"
        }
      ],
      "payable": false,
      "stateMutability": "view",
      "type": "function"
    },
    {
      "constant": true,
      "inputs": [
        {
          "name": "_tokenId",
          "type": "uint256"
        }
      ],
      "name": "ownerOf",
      "outputs": [
        {
          "name": "",
          "type": "address"
        }
      ],
      "payable": false,
      "stateMutability": "view",
      "type": "function"
    },
    {
      "constant": true,
      "inputs": [
        {
          "name": "_owner",
          "type": "address"
        }
      ],
      "name": "balanceOf",
      "outputs": [
        {
          "name": "",
          "type": "uint256"
        }
      ],
      "payable": false,
      "stateMutability": "view",
      "type": "function"
    },
    {
      "constant": false,
      "inputs": [],
      "name": "renounceOwnership",
      "outputs": [],
      "payable": false,
      "stateMutability": "nonpayable",
      "type": "function"
    },
    {
      "constant": true,
      "inputs": [],
      "name": "owner",
      "outputs": [
        {
          "name": "",
          "type": "address"
        }
      ],
      "payable": false,
      "stateMutability": "view",
      "type": "function"
    },
    {
      "constant": true,
      "inputs": [],
      "name": "symbol",
      "outputs": [
        {
          "name": "",
          "type": "string"
        }
      ],
      "payable": false,
      "stateMutability": "view",
      "type": "function"
    },
    {
      "constant": false,
      "inputs": [
        {
          "name": "_to",
          "type": "address"
        },
        {
          "name": "_approved",
          "type": "bool"
        }
      ],
      "name": "setApprovalForAll",
      "outputs": [],
      "payable": false,
      "stateMutability": "nonpayable",
      "type": "function"
    },
    {
      "constant": false,
      "inputs": [
        {
          "name": "_from",
          "type": "address"
        },
        {
          "name": "_to",
          "type": "address"
        },
        {
          "name": "_tokenId",
          "type": "uint256"
        },
        {
          "name": "_data",
          "type": "bytes"
        }
      ],
      "name": "safeTransferFrom",
      "outputs": [],
      "payable": false,
      "stateMutability": "nonpayable",
      "type": "function"
    },
    {
      "constant": true,
      "inputs": [
        {
          "name": "_tokenId",
          "type": "uint256"
        }
      ],
      "name": "tokenURI",
      "outputs": [
        {
          "name": "",
          "type": "string"
        }
      ],
      "payable": false,
      "stateMutability": "view",
      "type": "function"
    },
    {
      "constant": true,
      "inputs": [
        {
          "name": "_owner",
          "type": "address"
        },
        {
          "name": "_operator",
          "type": "address"
        }
      ],
      "name": "isApprovedForAll",
      "outputs": [
        {
          "name": "",
          "type": "bool"
        }
      ],
      "payable": false,
      "stateMutability": "view",
      "type": "function"
    },
    {
      "constant": false,
      "inputs": [
        {
          "name": "_newOwner",
          "type": "address"
        }
      ],
      "name": "transferOwnership",
      "outputs": [],
      "payable": false,
      "stateMutability": "nonpayable",
      "type": "function"
    },
    {
      "inputs": [],
      "payable": false,
      "stateMutability": "nonpayable",
      "type": "constructor"
    },
    {
      "anonymous": false,
      "inputs": [
        {
          "indexed": true,
          "name": "buyer",
          "type": "address"
        },
        {
          "indexed": false,
          "name": "tokenId",
          "type": "uint256"
        }
      ],
      "name": "BoughtToken",
      "type": "event"
    },
    {
      "anonymous": false,
      "inputs": [
        {
          "indexed": true,
          "name": "previousOwner",
          "type": "address"
        }
      ],
      "name": "OwnershipRenounced",
      "type": "event"
    },
    {
      "anonymous": false,
      "inputs": [
        {
          "indexed": true,
          "name": "previousOwner",
          "type": "address"
        },
        {
          "indexed": true,
          "name": "newOwner",
          "type": "address"
        }
      ],
      "name": "OwnershipTransferred",
      "type": "event"
    },
    {
      "anonymous": false,
      "inputs": [
        {
          "indexed": true,
          "name": "_from",
          "type": "address"
        },
        {
          "indexed": true,
          "name": "_to",
          "type": "address"
        },
        {
          "indexed": true,
          "name": "_tokenId",
          "type": "uint256"
        }
      ],
      "name": "Transfer",
      "type": "event"
    },
    {
      "anonymous": false,
      "inputs": [
        {
          "indexed": true,
          "name": "_owner",
          "type": "address"
        },
        {
          "indexed": true,
          "name": "_approved",
          "type": "address"
        },
        {
          "indexed": true,
          "name": "_tokenId",
          "type": "uint256"
        }
      ],
      "name": "Approval",
      "type": "event"
    },
    {
      "anonymous": false,
      "inputs": [
        {
          "indexed": true,
          "name": "_owner",
          "type": "address"
        },
        {
          "indexed": true,
          "name": "_operator",
          "type": "address"
        },
        {
          "indexed": false,
          "name": "_approved",
          "type": "bool"
        }
      ],
      "name": "ApprovalForAll",
      "type": "event"
    },
    {
      "constant": false,
      "inputs": [
        {
          "name": "_type",
          "type": "uint256"
        },
        {
          "name": "_title",
          "type": "string"
        },
        {
          "name": "_description",
          "type": "string"
        }
      ],
      "name": "buyToken",
      "outputs": [],
      "payable": true,
      "stateMutability": "payable",
      "type": "function"
    },
    {
      "constant": true,
      "inputs": [],
      "name": "myTokens",
      "outputs": [
        {
          "name": "",
          "type": "uint256[]"
        }
      ],
      "payable": false,
      "stateMutability": "view",
      "type": "function"
    },
    {
      "constant": true,
      "inputs": [
        {
          "name": "_tokenId",
          "type": "uint256"
        }
      ],
      "name": "viewToken",
      "outputs": [
        {
          "name": "tokenType_",
          "type": "uint256"
        },
        {
          "name": "tokenTitle_",
          "type": "string"
        },
        {
          "name": "tokenDescription_",
          "type": "string"
        }
      ],
      "payable": false,
      "stateMutability": "view",
      "type": "function"
    },
    {
      "constant": false,
      "inputs": [
        {
          "name": "newPrice",
          "type": "uint256"
        }
      ],
      "name": "setCurrentPrice",
      "outputs": [],
      "payable": false,
      "stateMutability": "nonpayable",
      "type": "function"
    },
    {
      "constant": true,
      "inputs": [],
      "name": "getCurrentPrice",
      "outputs": [
        {
          "name": "price",
          "type": "uint256"
        }
      ],
      "payable": false,
      "stateMutability": "view",
      "type": "function"
    },
    {
      "constant": false,
      "inputs": [],
      "name": "kill",
      "outputs": [],
      "payable": false,
      "stateMutability": "nonpayable",
      "type": "function"
    }
  ],
  "bytecode": "0x60806040526000600d553480156200001657600080fd5b506040805190810160405280600881526020017f446f63756d656e740000000000000000000000000000000000000000000000008152506040805190810160405280600481526020017f44514d5400000000000000000000000000000000000000000000000000000000815250620000c06301ffc9a77c0100000000000000000000000000000000000000000000000000000000026200022f640100000000026401000000009004565b620000fd6380ac58cd7c0100000000000000000000000000000000000000000000000000000000026200022f640100000000026401000000009004565b6200013a634f558e797c0100000000000000000000000000000000000000000000000000000000026200022f640100000000026401000000009004565b816005908051906020019062000152929190620002ed565b5080600690805190602001906200016b929190620002ed565b50620001a963780e9d637c0100000000000000000000000000000000000000000000000000000000026200022f640100000000026401000000009004565b620001e6635b5e139f7c0100000000000000000000000000000000000000000000000000000000026200022f640100000000026401000000009004565b505033600c60006101000a81548173ffffffffffffffffffffffffffffffffffffffff021916908373ffffffffffffffffffffffffffffffffffffffff1602179055506200039c565b63ffffffff7c010000000000000000000000000000000000000000000000000000000002817bffffffffffffffffffffffffffffffffffffffffffffffffffffffff1916141515156200028157600080fd5b6001600080837bffffffffffffffffffffffffffffffffffffffffffffffffffffffff19167bffffffffffffffffffffffffffffffffffffffffffffffffffffffff1916815260200190815260200160002060006101000a81548160ff02191690831515021790555050565b828054600181600116156101000203166002900490600052602060002090601f016020900481019282601f106200033057805160ff191683800117855562000361565b8280016001018555821562000361579182015b828111156200036057825182559160200191906001019062000343565b5b50905062000370919062000374565b5090565b6200039991905b80821115620003955760008160009055506001016200037b565b5090565b90565b6129a480620003ac6000396000f30060806040526004361061015f576000357c0100000000000000000000000000000000000000000000000000000000900463ffffffff16806301ffc9a71461016457806306fdde03146101c8578063081812fc14610258578063095ea7b3146102c557806318160ddd1461031257806318b200711461033d57806319fa8f501461036a57806323b872dd146103d35780632f745c591461044057806341c0e1b5146104a157806342842e0e146104b85780634f558e79146105255780634f6ccce71461056a5780634f7dad6a146105ab5780636352211e146105fb57806370a0823114610668578063715018a6146106bf5780638334d195146106d65780638da5cb5b146107ef578063949e8acd1461084657806395d89b41146108b2578063a22cb46514610942578063b88d4fde14610991578063c87b56dd14610a44578063e985e9c514610aea578063eb91d37e14610b65578063f2fde38b14610b90575b600080fd5b34801561017057600080fd5b506101ae60048036038101908080357bffffffffffffffffffffffffffffffffffffffffffffffffffffffff19169060200190929190505050610bd3565b604051808215151515815260200191505060405180910390f35b3480156101d457600080fd5b506101dd610c3a565b6040518080602001828103825283818151815260200191508051906020019080838360005b8381101561021d578082015181840152602081019050610202565b50505050905090810190601f16801561024a5780820380516001836020036101000a031916815260200191505b509250505060405180910390f35b34801561026457600080fd5b5061028360048036038101908080359060200190929190505050610cdc565b604051808273ffffffffffffffffffffffffffffffffffffffff1673ffffffffffffffffffffffffffffffffffffffff16815260200191505060405180910390f35b3480156102d157600080fd5b50610310600480360381019080803573ffffffffffffffffffffffffffffffffffffffff16906020019092919080359060200190929190505050610d19565b005b34801561031e57600080fd5b50610327610e5e565b6040518082815260200191505060405180910390f35b34801561034957600080fd5b5061036860048036038101908080359060200190929190505050610e6b565b005b34801561037657600080fd5b5061037f610ed1565b60405180827bffffffffffffffffffffffffffffffffffffffffffffffffffffffff19167bffffffffffffffffffffffffffffffffffffffffffffffffffffffff1916815260200191505060405180910390f35b3480156103df57600080fd5b5061043e600480360381019080803573ffffffffffffffffffffffffffffffffffffffff169060200190929190803573ffffffffffffffffffffffffffffffffffffffff16906020019092919080359060200190929190505050610ef8565b005b34801561044c57600080fd5b5061048b600480360381019080803573ffffffffffffffffffffffffffffffffffffffff16906020019092919080359060200190929190505050611003565b6040518082815260200191505060405180910390f35b3480156104ad57600080fd5b506104b661107a565b005b3480156104c457600080fd5b50610523600480360381019080803573ffffffffffffffffffffffffffffffffffffffff169060200190929190803573ffffffffffffffffffffffffffffffffffffffff1690602001909291908035906020019092919050505061110d565b005b34801561053157600080fd5b506105506004803603810190808035906020019092919050505061112e565b604051808215151515815260200191505060405180910390f35b34801561057657600080fd5b50610595600480360381019080803590602001909291905050506111a0565b6040518082815260200191505060405180910390f35b6105f9600480360381019080803590602001909291908035906020019082018035906020019190919293919293908035906020019082018035906020019190919293919293905050506111d8565b005b34801561060757600080fd5b506106266004803603810190808035906020019092919050505061157b565b604051808273ffffffffffffffffffffffffffffffffffffffff1673ffffffffffffffffffffffffffffffffffffffff16815260200191505060405180910390f35b34801561067457600080fd5b506106a9600480360381019080803573ffffffffffffffffffffffffffffffffffffffff1690602001909291905050506115f9565b6040518082815260200191505060405180910390f35b3480156106cb57600080fd5b506106d461167d565b005b3480156106e257600080fd5b5061070160048036038101908080359060200190929190505050611782565b604051808481526020018060200180602001838103835285818151815260200191508051906020019080838360005b8381101561074b578082015181840152602081019050610730565b50505050905090810190601f1680156107785780820380516001836020036101000a031916815260200191505b50838103825284818151815260200191508051906020019080838360005b838110156107b1578082015181840152602081019050610796565b50505050905090810190601f1680156107de5780820380516001836020036101000a031916815260200191505b509550505050505060405180910390f35b3480156107fb57600080fd5b50610804611900565b604051808273ffffffffffffffffffffffffffffffffffffffff1673ffffffffffffffffffffffffffffffffffffffff16815260200191505060405180910390f35b34801561085257600080fd5b5061085b611926565b6040518080602001828103825283818151815260200191508051906020019060200280838360005b8381101561089e578082015181840152602081019050610883565b505050509050019250505060405180910390f35b3480156108be57600080fd5b506108c76119bb565b6040518080602001828103825283818151815260200191508051906020019080838360005b838110156109075780820151818401526020810190506108ec565b50505050905090810190601f1680156109345780820380516001836020036101000a031916815260200191505b509250505060405180910390f35b34801561094e57600080fd5b5061098f600480360381019080803573ffffffffffffffffffffffffffffffffffffffff169060200190929190803515159060200190929190505050611a5d565b005b34801561099d57600080fd5b50610a42600480360381019080803573ffffffffffffffffffffffffffffffffffffffff169060200190929190803573ffffffffffffffffffffffffffffffffffffffff16906020019092919080359060200190929190803590602001908201803590602001908080601f0160208091040260200160405190810160405280939291908181526020018383808284378201915050505050509192919290505050611b99565b005b348015610a5057600080fd5b50610a6f60048036038101908080359060200190929190505050611bc1565b6040518080602001828103825283818151815260200191508051906020019080838360005b83811015610aaf578082015181840152602081019050610a94565b50505050905090810190601f168015610adc5780820380516001836020036101000a031916815260200191505b509250505060405180910390f35b348015610af657600080fd5b50610b4b600480360381019080803573ffffffffffffffffffffffffffffffffffffffff169060200190929190803573ffffffffffffffffffffffffffffffffffffffff169060200190929190505050611c8a565b604051808215151515815260200191505060405180910390f35b348015610b7157600080fd5b50610b7a611d1e565b6040518082815260200191505060405180910390f35b348015610b9c57600080fd5b50610bd1600480360381019080803573ffffffffffffffffffffffffffffffffffffffff169060200190929190505050611d28565b005b6000806000837bffffffffffffffffffffffffffffffffffffffffffffffffffffffff19167bffffffffffffffffffffffffffffffffffffffffffffffffffffffff1916815260200190815260200160002060009054906101000a900460ff169050919050565b606060058054600181600116156101000203166002900480601f016020809104026020016040519081016040528092919081815260200182805460018160011615610100020316600290048015610cd25780601f10610ca757610100808354040283529160200191610cd2565b820191906000526020600020905b815481529060010190602001808311610cb557829003601f168201915b5050505050905090565b60006002600083815260200190815260200160002060009054906101000a900473ffffffffffffffffffffffffffffffffffffffff169050919050565b6000610d248261157b565b90508073ffffffffffffffffffffffffffffffffffffffff168373ffffffffffffffffffffffffffffffffffffffff1614151515610d6157600080fd5b8073ffffffffffffffffffffffffffffffffffffffff163373ffffffffffffffffffffffffffffffffffffffff161480610da15750610da08133611c8a565b5b1515610dac57600080fd5b826002600084815260200190815260200160002060006101000a81548173ffffffffffffffffffffffffffffffffffffffff021916908373ffffffffffffffffffffffffffffffffffffffff160217905550818373ffffffffffffffffffffffffffffffffffffffff168273ffffffffffffffffffffffffffffffffffffffff167f8c5be1e5ebec7d5bd14f71427d1e84f3dd0314c0f7b2291e5b200ac8c7c3b92560405160405180910390a4505050565b6000600980549050905090565b600c60009054906101000a900473ffffffffffffffffffffffffffffffffffffffff1673ffffffffffffffffffffffffffffffffffffffff163373ffffffffffffffffffffffffffffffffffffffff16141515610ec757600080fd5b80600d8190555050565b6301ffc9a77c01000000000000000000000000000000000000000000000000000000000281565b610f023382611d90565b1515610f0d57600080fd5b600073ffffffffffffffffffffffffffffffffffffffff168373ffffffffffffffffffffffffffffffffffffffff1614151515610f4957600080fd5b600073ffffffffffffffffffffffffffffffffffffffff168273ffffffffffffffffffffffffffffffffffffffff1614151515610f8557600080fd5b610f8f8382611e25565b610f998382611f28565b610fa382826120e4565b808273ffffffffffffffffffffffffffffffffffffffff168473ffffffffffffffffffffffffffffffffffffffff167fddf252ad1be2c89b69c2b068fc378daa952ba7f163c4a11628f55a4df523b3ef60405160405180910390a4505050565b600061100e836115f9565b8210151561101b57600080fd5b600760008473ffffffffffffffffffffffffffffffffffffffff1673ffffffffffffffffffffffffffffffffffffffff1681526020019081526020016000208281548110151561106757fe5b9060005260206000200154905092915050565b600c60009054906101000a900473ffffffffffffffffffffffffffffffffffffffff1673ffffffffffffffffffffffffffffffffffffffff163373ffffffffffffffffffffffffffffffffffffffff16141561110b57600c60009054906101000a900473ffffffffffffffffffffffffffffffffffffffff1673ffffffffffffffffffffffffffffffffffffffff16ff5b565b6111298383836020604051908101604052806000815250611b99565b505050565b6000806001600084815260200190815260200160002060009054906101000a900473ffffffffffffffffffffffffffffffffffffffff169050600073ffffffffffffffffffffffffffffffffffffffff168173ffffffffffffffffffffffffffffffffffffffff161415915050919050565b60006111aa610e5e565b821015156111b757600080fd5b6009828154811015156111c657fe5b90600052602060002001549050919050565b606080600086868080601f0160208091040260200160405190810160405280939291908181526020018383808284378201915050505050509250600160ff1683511015151561128f576040517f08c379a00000000000000000000000000000000000000000000000000000000081526004018080602001828103825260128152602001807f5469746c6520697320746f6f2073686f7274000000000000000000000000000081525060200191505060405180910390fd5b604060ff1683511115151561130c576040517f08c379a00000000000000000000000000000000000000000000000000000000081526004018080602001828103825260118152602001807f5469746c6520697320746f6f206c6f6e6700000000000000000000000000000081525060200191505060405180910390fd5b84848080601f016020809104026020016040519081016040528093929190818152602001838380828437820191505050505050915060018251101515156113bb576040517f08c379a00000000000000000000000000000000000000000000000000000000081526004018080602001828103825260188152602001807f4465736372697074696f6e20697320746f6f2073686f7274000000000000000081525060200191505060405180910390fd5b612710825111151515611436576040517f08c379a00000000000000000000000000000000000000000000000000000000081526004018080602001828103825260178152602001807f4465736372697074696f6e20697320746f6f206c6f6e6700000000000000000081525060200191505060405180910390fd5b600d5434101515156114b0576040517f08c379a000000000000000000000000000000000000000000000000000000000815260040180806020018281038252601e8152602001807f416d6f756e74206f662045746865722073656e7420746f6f20736d616c6c000081525060200191505060405180910390fd5b60016009805490500190506114c533826121bb565b87600e6000838152602001908152602001600020819055508686600f600084815260200190815260200160002091906114ff9291906128a7565b5084846010600084815260200190815260200160002091906115229291906128a7565b503373ffffffffffffffffffffffffffffffffffffffff167f75424253909c2f4460f8a59099700e980f5b484608c4fdd79f600f5162ac88a5826040518082815260200191505060405180910390a25050505050505050565b6000806001600084815260200190815260200160002060009054906101000a900473ffffffffffffffffffffffffffffffffffffffff169050600073ffffffffffffffffffffffffffffffffffffffff168173ffffffffffffffffffffffffffffffffffffffff16141515156115f057600080fd5b80915050919050565b60008073ffffffffffffffffffffffffffffffffffffffff168273ffffffffffffffffffffffffffffffffffffffff161415151561163657600080fd5b600360008373ffffffffffffffffffffffffffffffffffffffff1673ffffffffffffffffffffffffffffffffffffffff168152602001908152602001600020549050919050565b600c60009054906101000a900473ffffffffffffffffffffffffffffffffffffffff1673ffffffffffffffffffffffffffffffffffffffff163373ffffffffffffffffffffffffffffffffffffffff161415156116d957600080fd5b600c60009054906101000a900473ffffffffffffffffffffffffffffffffffffffff1673ffffffffffffffffffffffffffffffffffffffff167ff8df31144d9c2f0f6b59d69b8b98abd5459d07f2742c4df920b25aae33c6482060405160405180910390a26000600c60006101000a81548173ffffffffffffffffffffffffffffffffffffffff021916908373ffffffffffffffffffffffffffffffffffffffff160217905550565b6000606080600e6000858152602001908152602001600020549250600f60008581526020019081526020016000208054600181600116156101000203166002900480601f0160208091040260200160405190810160405280929190818152602001828054600181600116156101000203166002900480156118445780601f1061181957610100808354040283529160200191611844565b820191906000526020600020905b81548152906001019060200180831161182757829003601f168201915b50505050509150601060008581526020019081526020016000208054600181600116156101000203166002900480601f0160208091040260200160405190810160405280929190818152602001828054600181600116156101000203166002900480156118f25780601f106118c7576101008083540402835291602001916118f2565b820191906000526020600020905b8154815290600101906020018083116118d557829003601f168201915b505050505090509193909250565b600c60009054906101000a900473ffffffffffffffffffffffffffffffffffffffff1681565b6060600760003373ffffffffffffffffffffffffffffffffffffffff1673ffffffffffffffffffffffffffffffffffffffff1681526020019081526020016000208054806020026020016040519081016040528092919081815260200182805480156119b157602002820191906000526020600020905b81548152602001906001019080831161199d575b5050505050905090565b606060068054600181600116156101000203166002900480601f016020809104026020016040519081016040528092919081815260200182805460018160011615610100020316600290048015611a535780601f10611a2857610100808354040283529160200191611a53565b820191906000526020600020905b815481529060010190602001808311611a3657829003601f168201915b5050505050905090565b3373ffffffffffffffffffffffffffffffffffffffff168273ffffffffffffffffffffffffffffffffffffffff1614151515611a9857600080fd5b80600460003373ffffffffffffffffffffffffffffffffffffffff1673ffffffffffffffffffffffffffffffffffffffff16815260200190815260200160002060008473ffffffffffffffffffffffffffffffffffffffff1673ffffffffffffffffffffffffffffffffffffffff16815260200190815260200160002060006101000a81548160ff0219169083151502179055508173ffffffffffffffffffffffffffffffffffffffff163373ffffffffffffffffffffffffffffffffffffffff167f17307eab39ab6107e8899845ad3d59bd9653f200f220920489ca2b5937696c3183604051808215151515815260200191505060405180910390a35050565b611ba4848484610ef8565b611bb084848484612212565b1515611bbb57600080fd5b50505050565b6060611bcc8261112e565b1515611bd757600080fd5b600b60008381526020019081526020016000208054600181600116156101000203166002900480601f016020809104026020016040519081016040528092919081815260200182805460018160011615610100020316600290048015611c7e5780601f10611c5357610100808354040283529160200191611c7e565b820191906000526020600020905b815481529060010190602001808311611c6157829003601f168201915b50505050509050919050565b6000600460008473ffffffffffffffffffffffffffffffffffffffff1673ffffffffffffffffffffffffffffffffffffffff16815260200190815260200160002060008373ffffffffffffffffffffffffffffffffffffffff1673ffffffffffffffffffffffffffffffffffffffff16815260200190815260200160002060009054906101000a900460ff16905092915050565b6000600d54905090565b600c60009054906101000a900473ffffffffffffffffffffffffffffffffffffffff1673ffffffffffffffffffffffffffffffffffffffff163373ffffffffffffffffffffffffffffffffffffffff16141515611d8457600080fd5b611d8d81612434565b50565b600080611d9c8361157b565b90508073ffffffffffffffffffffffffffffffffffffffff168473ffffffffffffffffffffffffffffffffffffffff161480611e0b57508373ffffffffffffffffffffffffffffffffffffffff16611df384610cdc565b73ffffffffffffffffffffffffffffffffffffffff16145b80611e1c5750611e1b8185611c8a565b5b91505092915050565b8173ffffffffffffffffffffffffffffffffffffffff16611e458261157b565b73ffffffffffffffffffffffffffffffffffffffff16141515611e6757600080fd5b600073ffffffffffffffffffffffffffffffffffffffff166002600083815260200190815260200160002060009054906101000a900473ffffffffffffffffffffffffffffffffffffffff1673ffffffffffffffffffffffffffffffffffffffff16141515611f245760006002600083815260200190815260200160002060006101000a81548173ffffffffffffffffffffffffffffffffffffffff021916908373ffffffffffffffffffffffffffffffffffffffff1602179055505b5050565b6000806000611f378585612530565b60086000858152602001908152602001600020549250611fa36001600760008873ffffffffffffffffffffffffffffffffffffffff1673ffffffffffffffffffffffffffffffffffffffff1681526020019081526020016000208054905061265f90919063ffffffff16565b9150600760008673ffffffffffffffffffffffffffffffffffffffff1673ffffffffffffffffffffffffffffffffffffffff16815260200190815260200160002082815481101515611ff157fe5b9060005260206000200154905080600760008773ffffffffffffffffffffffffffffffffffffffff1673ffffffffffffffffffffffffffffffffffffffff1681526020019081526020016000208481548110151561204b57fe5b9060005260206000200181905550600760008673ffffffffffffffffffffffffffffffffffffffff1673ffffffffffffffffffffffffffffffffffffffff1681526020019081526020016000208054809190600190036120ab9190612927565b50600060086000868152602001908152602001600020819055508260086000838152602001908152602001600020819055505050505050565b60006120f08383612678565b600760008473ffffffffffffffffffffffffffffffffffffffff1673ffffffffffffffffffffffffffffffffffffffff168152602001908152602001600020805490509050600760008473ffffffffffffffffffffffffffffffffffffffff1673ffffffffffffffffffffffffffffffffffffffff168152602001908152602001600020829080600181540180825580915050906001820390600052602060002001600090919290919091505550806008600084815260200190815260200160002081905550505050565b6121c582826127d2565b600980549050600a60008381526020019081526020016000208190555060098190806001815401808255809150509060018203906000526020600020016000909192909190915055505050565b6000806122348573ffffffffffffffffffffffffffffffffffffffff16612878565b1515612243576001915061242b565b8473ffffffffffffffffffffffffffffffffffffffff1663150b7a02338887876040518563ffffffff167c0100000000000000000000000000000000000000000000000000000000028152600401808573ffffffffffffffffffffffffffffffffffffffff1673ffffffffffffffffffffffffffffffffffffffff1681526020018473ffffffffffffffffffffffffffffffffffffffff1673ffffffffffffffffffffffffffffffffffffffff16815260200183815260200180602001828103825283818151815260200191508051906020019080838360005b8381101561233857808201518184015260208101905061231d565b50505050905090810190601f1680156123655780820380516001836020036101000a031916815260200191505b5095505050505050602060405180830381600087803b15801561238757600080fd5b505af115801561239b573d6000803e3d6000fd5b505050506040513d60208110156123b157600080fd5b8101908080519060200190929190505050905063150b7a027c0100000000000000000000000000000000000000000000000000000000027bffffffffffffffffffffffffffffffffffffffffffffffffffffffff1916817bffffffffffffffffffffffffffffffffffffffffffffffffffffffff19161491505b50949350505050565b600073ffffffffffffffffffffffffffffffffffffffff168173ffffffffffffffffffffffffffffffffffffffff161415151561247057600080fd5b8073ffffffffffffffffffffffffffffffffffffffff16600c60009054906101000a900473ffffffffffffffffffffffffffffffffffffffff1673ffffffffffffffffffffffffffffffffffffffff167f8be0079c531659141344cd1fd0a4f28419497f9722a3daafe3b4186f6b6457e060405160405180910390a380600c60006101000a81548173ffffffffffffffffffffffffffffffffffffffff021916908373ffffffffffffffffffffffffffffffffffffffff16021790555050565b8173ffffffffffffffffffffffffffffffffffffffff166125508261157b565b73ffffffffffffffffffffffffffffffffffffffff1614151561257257600080fd5b6125c56001600360008573ffffffffffffffffffffffffffffffffffffffff1673ffffffffffffffffffffffffffffffffffffffff1681526020019081526020016000205461265f90919063ffffffff16565b600360008473ffffffffffffffffffffffffffffffffffffffff1673ffffffffffffffffffffffffffffffffffffffff1681526020019081526020016000208190555060006001600083815260200190815260200160002060006101000a81548173ffffffffffffffffffffffffffffffffffffffff021916908373ffffffffffffffffffffffffffffffffffffffff1602179055505050565b600082821115151561266d57fe5b818303905092915050565b600073ffffffffffffffffffffffffffffffffffffffff166001600083815260200190815260200160002060009054906101000a900473ffffffffffffffffffffffffffffffffffffffff1673ffffffffffffffffffffffffffffffffffffffff161415156126e657600080fd5b816001600083815260200190815260200160002060006101000a81548173ffffffffffffffffffffffffffffffffffffffff021916908373ffffffffffffffffffffffffffffffffffffffff16021790555061278b6001600360008573ffffffffffffffffffffffffffffffffffffffff1673ffffffffffffffffffffffffffffffffffffffff1681526020019081526020016000205461288b90919063ffffffff16565b600360008473ffffffffffffffffffffffffffffffffffffffff1673ffffffffffffffffffffffffffffffffffffffff168152602001908152602001600020819055505050565b600073ffffffffffffffffffffffffffffffffffffffff168273ffffffffffffffffffffffffffffffffffffffff161415151561280e57600080fd5b61281882826120e4565b808273ffffffffffffffffffffffffffffffffffffffff16600073ffffffffffffffffffffffffffffffffffffffff167fddf252ad1be2c89b69c2b068fc378daa952ba7f163c4a11628f55a4df523b3ef60405160405180910390a45050565b600080823b905060008111915050919050565b6000818301905082811015151561289e57fe5b80905092915050565b828054600181600116156101000203166002900490600052602060002090601f016020900481019282601f106128e857803560ff1916838001178555612916565b82800160010185558215612916579182015b828111156129155782358255916020019190600101906128fa565b5b5090506129239190612953565b5090565b81548183558181111561294e5781836000526020600020918201910161294d9190612953565b5b505050565b61297591905b80821115612971576000816000905550600101612959565b5090565b905600a165627a7a72305820a30ada45c30ae29b36042a4bf4042e480541777f40f1122d3dce70bc149ff62c0029",
  "source": "pragma solidity ^0.4.24;\r\n\r\nimport \"../node_modules/zeppelin-solidity/contracts/token/ERC721/ERC721Token.sol\";\r\nimport \"../node_modules/zeppelin-solidity/contracts/ownership/Ownable.sol\";\r\nimport \"./AccessControlLayer.sol\";\r\n\r\n\r\ncontract MyERC721 is ERC721Token, Ownable {\r\n\r\n    event BoughtToken(address indexed buyer, uint256 tokenId);\r\n\r\n\t  /*** CONSTANTS ***/\r\n    uint8 constant TITLE_MIN_LENGTH = 1;\r\n    uint8 constant TITLE_MAX_LENGTH = 64;\r\n    uint256 constant DESCRIPTION_MIN_LENGTH = 1;\r\n    uint256 constant DESCRIPTION_MAX_LENGTH = 10000;\r\n\r\n/*** DATA TYPES ***/\r\n\r\n/// Price set by contract owner for each token in Wei.\r\n/// @dev If you'd like a different price for each token type, you will\r\n///   need to use a mapping like: `mapping(uint256 => uint256) tokenTypePrices;`\r\n    uint256 currentPrice = 0;\r\n\r\n/// The token type (1 for idea, 2 for belonging, etc)\r\n    mapping(uint256 => uint256) tokenTypes;\r\n\r\n/// The title of the token\r\n    mapping(uint256 => string) tokenTitles;\r\n\r\n/// The description of the token\r\n    mapping(uint256 => string) tokenDescription;\r\n\r\n    constructor() ERC721Token(\"Document\", \"DQMT\") public {\r\n// // any init code when you deploy the contract would run here\r\n    }  \r\n/// Requires the amount of Ether be at least or more of the currentPrice\r\n/// @dev Creates an instance of an token and mints it to the purchaser\r\n/// @param _type The token type as an integer\r\n/// @param _title The sShort title of the token\r\n/// @param _description Description of the token\r\n    function buyToken (\r\n        uint256 _type,\r\n        string _title,\r\n        string _description\r\n        ) external payable {\r\n        bytes memory _titleBytes = bytes(_title);\r\n        require(_titleBytes.length >= TITLE_MIN_LENGTH, \"Title is too short\");\r\n        require(_titleBytes.length <= TITLE_MAX_LENGTH, \"Title is too long\");\r\n\r\n        bytes memory _descriptionBytes = bytes(_description);\r\n        require(_descriptionBytes.length >= DESCRIPTION_MIN_LENGTH, \"Description is too short\");\r\n        require(_descriptionBytes.length <= DESCRIPTION_MAX_LENGTH, \"Description is too long\");\r\n        require(msg.value >= currentPrice, \"Amount of Ether sent too small\");\r\n\r\n        uint256 index = allTokens.length + 1;\r\n\r\n        _mint(msg.sender, index);\r\n\r\n        tokenTypes[index] = _type;\r\n        tokenTitles[index] = _title;\r\n        tokenDescription[index] = _description;\r\n\r\n        emit BoughtToken(msg.sender, index);\r\n    }\r\n\r\n/**\r\n* @dev Returns all of the tokens that the user owns\r\n* @return An array of token indices\r\n*/\r\n    function myTokens()\r\n        external\r\n        view\r\n        returns (\r\n        uint256[]\r\n        )\r\n    {\r\n        return ownedTokens[msg.sender];\r\n    }\r\n\r\n/// @notice Returns all the relevant information about a specific token\r\n/// @param _tokenId The ID of the token of interest\r\n    function viewToken(uint256 _tokenId)\r\n        external\r\n        view\r\n        returns (\r\n        uint256 tokenType_,\r\n        string tokenTitle_,\r\n        string tokenDescription_\r\n        ) {\r\n        tokenType_ = tokenTypes[_tokenId];\r\n        tokenTitle_ = tokenTitles[_tokenId];\r\n        tokenDescription_ = tokenDescription[_tokenId];\r\n        }\r\n\r\n/// @notice Allows the owner of this contract to set the currentPrice for each token\r\n    function setCurrentPrice(uint256 newPrice)\r\n         public\r\n         onlyOwner\r\n        {\r\n        currentPrice = newPrice;\r\n    }\r\n\r\n/// @notice Returns the currentPrice for each token\r\n    function getCurrentPrice()\r\n        external\r\n        view\r\n        returns (\r\n        uint256 price\r\n        ) {\r\n        price = currentPrice;\r\n    }\r\n/// @notice allows the owner of this contract to destroy the contract\r\n    function kill() public {\r\n        if(msg.sender == owner) selfdestruct(owner);\r\n    }  \r\n\r\n\r\n\r\n}\r\n\r\n\r\n\r\n\r\n",
  "sourcePath": "C:\\Users\\Athira\\Desktop\\ERC721\\contracts\\MyERC721.sol",
  "compiler": {
    "name": "solc",
    "version": "0.4.24+commit.e67f0147.Emscripten.clang"
  },
  "schemaVersion": "2.0.0",
  "updatedAt": "2018-09-11T21:32:06.939Z"
}